{
    "contractName": "LendingPool",
    "abi": [
        {
            "inputs": [
                {
                    "internalType": "uint256",
                    "name": "_interestRate",
                    "type": "uint256"
                }
            ],
            "stateMutability": "nonpayable",
            "type": "constructor"
        },
        {
            "inputs": [
                {
                    "internalType": "uint256",
                    "name": "amount",
                    "type": "uint256"
                }
            ],
            "name": "borrow",
            "outputs": [],
            "stateMutability": "nonpayable",
            "type": "function"
        },
        {
            "inputs": [
                {
                    "internalType": "address",
                    "name": "",
                    "type": "address"
                }
            ],
            "name": "borrowers",
            "outputs": [
                {
                    "internalType": "uint256",
                    "name": "borrowedAmount",
                    "type": "uint256"
                },
                {
                    "internalType": "uint256",
                    "name": "repaymentAmount",
                    "type": "uint256"
                },
                {
                    "internalType": "uint256",
                    "name": "monthlyRepayment",
                    "type": "uint256"
                }
            ],
            "stateMutability": "view",
            "type": "function"
        },
        {
            "inputs": [],
            "name": "canMakePayment",
            "outputs": [
                {
                    "internalType": "bool",
                    "name": "",
                    "type": "bool"
                }
            ],
            "stateMutability": "view",
            "type": "function"
        },
        {
            "inputs": [],
            "name": "deposit",
            "outputs": [],
            "stateMutability": "payable",
            "type": "function"
        },
        {
            "inputs": [
                {
                    "internalType": "address",
                    "name": "",
                    "type": "address"
                }
            ],
            "name": "deposits",
            "outputs": [
                {
                    "internalType": "uint256",
                    "name": "",
                    "type": "uint256"
                }
            ],
            "stateMutability": "view",
            "type": "function"
        },
        {
            "inputs": [],
            "name": "interestRate",
            "outputs": [
                {
                    "internalType": "uint256",
                    "name": "",
                    "type": "uint256"
                }
            ],
            "stateMutability": "view",
            "type": "function"
        },
        {
            "inputs": [],
            "name": "owner",
            "outputs": [
                {
                    "internalType": "address",
                    "name": "",
                    "type": "address"
                }
            ],
            "stateMutability": "view",
            "type": "function"
        },
        {
            "inputs": [],
            "name": "totalDeposits",
            "outputs": [
                {
                    "internalType": "uint256",
                    "name": "",
                    "type": "uint256"
                }
            ],
            "stateMutability": "view",
            "type": "function"
        }
    ],
    "bytecode": "608060405234801561001057600080fd5b5060405161051638038061051683398101604081905261002f91610049565b600080546001600160a01b03191633179055600155610062565b60006020828403121561005b57600080fd5b5051919050565b6104a5806100716000396000f3fe60806040526004361061007b5760003560e01c8063c5ebeaec1161004e578063c5ebeaec1461014e578063d0e30db014610170578063dde3d53814610178578063fc7e286d1461019d57600080fd5b80637c3a00fd146100805780637d882097146100a95780638da5cb5b146100bf578063bf5d50c4146100f7575b600080fd5b34801561008c57600080fd5b5061009660015481565b6040519081526020015b60405180910390f35b3480156100b557600080fd5b5061009660025481565b3480156100cb57600080fd5b506000546100df906001600160a01b031681565b6040516001600160a01b0390911681526020016100a0565b34801561010357600080fd5b506101336101123660046103ab565b60046020526000908152604090208054600182015460029092015490919083565b604080519384526020840192909252908201526060016100a0565b34801561015a57600080fd5b5061016e6101693660046103db565b6101ca565b005b61016e610331565b34801561018457600080fd5b5061018d610370565b60405190151581526020016100a0565b3480156101a957600080fd5b506100966101b83660046103ab565b60036020526000908152604090205481565b336000908152600360205260409020548111156102255760405162461bcd60e51b8152602060048201526014602482015273496e73756666696369656e742062616c616e636560601b60448201526064015b60405180910390fd5b33600090815260046020526040902054156102775760405162461bcd60e51b815260206004820152601260248201527120b63932b0b23c9030903137b93937bbb2b960711b604482015260640161021c565b6000606460015483610289919061040a565b6102939190610427565b905060006102a2600c83610427565b90506000600c6102b28386610449565b6102bc9190610427565b9050604051806060016040528085815260200184866102db9190610449565b8152602090810183905233600090815260048252604080822084518155848401516001820155938101516002909401939093556003909152908120805486929061032690849061045c565b909155505050505050565b3360009081526003602052604081208054349290610350908490610449565b9250508190555034600260008282546103699190610449565b9091555050565b3360009081526004602052604081206001810154158015906103a5575060028101543360009081526003602052604090205410155b91505090565b6000602082840312156103bd57600080fd5b81356001600160a01b03811681146103d457600080fd5b9392505050565b6000602082840312156103ed57600080fd5b5035919050565b634e487b7160e01b600052601160045260246000fd5b8082028115828204841417610421576104216103f4565b92915050565b60008261044457634e487b7160e01b600052601260045260246000fd5b500490565b80820180821115610421576104216103f4565b81810381811115610421576104216103f456fea264697066735822122059e1304d88aae857c2101739bdf8f0e1bdd4a5296d99c50b7bad87c27008ac9364736f6c63430008130033",
    "sourcePath": "/Users/pirey/Dropbox/VariableLendingPool/contracts/payment.sol",
    "compiler": {
        "name": "solc",
        "version": "0.8.19+commit.7dd6d404"
    },
    "functionHashes": {
        "borrow(uint256)": "c5ebeaec",
        "borrowers(address)": "bf5d50c4",
        "canMakePayment()": "dde3d538",
        "deposit()": "d0e30db0",
        "deposits(address)": "fc7e286d",
        "interestRate()": "7c3a00fd",
        "owner()": "8da5cb5b",
        "totalDeposits()": "7d882097"
    },
    "gasEstimates": {
        "creation": {
            "codeDepositCost": "237800",
            "executionCost": "infinite",
            "totalCost": "infinite"
        },
        "external": {
            "borrow(uint256)": "infinite",
            "borrowers(address)": "6826",
            "canMakePayment()": "6755",
            "deposit()": "infinite",
            "deposits(address)": "2539",
            "interestRate()": "2285",
            "owner()": "2382",
            "totalDeposits()": "2307"
        }
    }
}