{
    "contractName": "LendingPlatform",
    "abi": [
        {
            "inputs": [],
            "stateMutability": "nonpayable",
            "type": "constructor"
        },
        {
            "inputs": [
                {
                    "internalType": "address",
                    "name": "borrowerAddress",
                    "type": "address"
                },
                {
                    "internalType": "uint256",
                    "name": "interestRate",
                    "type": "uint256"
                }
            ],
            "name": "checkPaymentAbility",
            "outputs": [
                {
                    "internalType": "bool",
                    "name": "",
                    "type": "bool"
                },
                {
                    "internalType": "uint256",
                    "name": "",
                    "type": "uint256"
                }
            ],
            "stateMutability": "view",
            "type": "function"
        },
        {
            "inputs": [
                {
                    "internalType": "address",
                    "name": "userAddress",
                    "type": "address"
                }
            ],
            "name": "isBorrower",
            "outputs": [
                {
                    "internalType": "bool",
                    "name": "",
                    "type": "bool"
                }
            ],
            "stateMutability": "view",
            "type": "function"
        },
        {
            "inputs": [],
            "name": "owner",
            "outputs": [
                {
                    "internalType": "address",
                    "name": "",
                    "type": "address"
                }
            ],
            "stateMutability": "view",
            "type": "function"
        },
        {
            "inputs": [
                {
                    "internalType": "address",
                    "name": "",
                    "type": "address"
                }
            ],
            "name": "users",
            "outputs": [
                {
                    "internalType": "uint256",
                    "name": "collateralAmount",
                    "type": "uint256"
                },
                {
                    "internalType": "uint256",
                    "name": "borrowedAmount",
                    "type": "uint256"
                },
                {
                    "internalType": "uint256",
                    "name": "creditScore",
                    "type": "uint256"
                },
                {
                    "internalType": "bool",
                    "name": "exists",
                    "type": "bool"
                }
            ],
            "stateMutability": "view",
            "type": "function"
        }
    ],
    "bytecode": "608060405234801561001057600080fd5b50600080546001600160a01b031916331790556102c8806100326000396000f3fe608060405234801561001057600080fd5b506004361061004c5760003560e01c80638da5cb5b146100515780638fb8271614610081578063a87430ba146100ab578063eaf6e48314610106575b600080fd5b600054610064906001600160a01b031681565b6040516001600160a01b0390911681526020015b60405180910390f35b61009461008f3660046101f9565b610145565b604080519215158352602083019190915201610078565b6100e46100b9366004610223565b6001602081905260009182526040909120805491810154600282015460039092015490919060ff1684565b6040805194855260208501939093529183015215156060820152608001610078565b610135610114366004610223565b6001600160a01b031660009081526001602052604090206003015460ff1690565b6040519015158152602001610078565b6001600160a01b0382166000908152600160205260408120600381015482919060ff166101ae5760405162461bcd60e51b8152602060048201526013602482015272155cd95c88191bd95cc81b9bdd08195e1a5cdd606a1b604482015260640160405180910390fd5b60018101546000600c6101c18784610245565b6101cb9190610270565b92548311159792965091945050505050565b80356001600160a01b03811681146101f457600080fd5b919050565b6000806040838503121561020c57600080fd5b610215836101dd565b946020939093013593505050565b60006020828403121561023557600080fd5b61023e826101dd565b9392505050565b808202811582820484141761026a57634e487b7160e01b600052601160045260246000fd5b92915050565b60008261028d57634e487b7160e01b600052601260045260246000fd5b50049056fea26469706673582212206b8d1e31ffd4bffbd5d0ffb13489ecd700227f3fabbedabd19bdfc169515cc8b64736f6c63430008130033",
    "sourcePath": "/Users/pirey/Dropbox/VariableLendingPool/contracts/payment.sol",
    "compiler": {
        "name": "solc",
        "version": "0.8.19+commit.7dd6d404"
    },
    "functionHashes": {
        "checkPaymentAbility(address,uint256)": "8fb82716",
        "isBorrower(address)": "eaf6e483",
        "owner()": "8da5cb5b",
        "users(address)": "a87430ba"
    },
    "gasEstimates": {
        "creation": {
            "codeDepositCost": "142400",
            "executionCost": "24425",
            "totalCost": "166825"
        },
        "external": {
            "checkPaymentAbility(address,uint256)": "7043",
            "isBorrower(address)": "2599",
            "owner()": "2304",
            "users(address)": "8961"
        }
    }
}