{
    "contractName": "Loan",
    "abi": [
        {
            "inputs": [
                {
                    "internalType": "address",
                    "name": "_borrower",
                    "type": "address"
                },
                {
                    "internalType": "uint256",
                    "name": "_loaned_amount",
                    "type": "uint256"
                },
                {
                    "internalType": "uint256",
                    "name": "_interest_rate",
                    "type": "uint256"
                },
                {
                    "internalType": "uint256",
                    "name": "_loan_duration",
                    "type": "uint256"
                }
            ],
            "stateMutability": "nonpayable",
            "type": "constructor"
        },
        {
            "inputs": [],
            "name": "balance",
            "outputs": [
                {
                    "internalType": "uint256",
                    "name": "",
                    "type": "uint256"
                }
            ],
            "stateMutability": "view",
            "type": "function"
        },
        {
            "inputs": [],
            "name": "borrower",
            "outputs": [
                {
                    "internalType": "address",
                    "name": "",
                    "type": "address"
                }
            ],
            "stateMutability": "view",
            "type": "function"
        },
        {
            "inputs": [],
            "name": "interest_rate",
            "outputs": [
                {
                    "internalType": "uint256",
                    "name": "",
                    "type": "uint256"
                }
            ],
            "stateMutability": "view",
            "type": "function"
        },
        {
            "inputs": [],
            "name": "loan_duration",
            "outputs": [
                {
                    "internalType": "uint256",
                    "name": "",
                    "type": "uint256"
                }
            ],
            "stateMutability": "view",
            "type": "function"
        },
        {
            "inputs": [],
            "name": "loaned_amount",
            "outputs": [
                {
                    "internalType": "uint256",
                    "name": "",
                    "type": "uint256"
                }
            ],
            "stateMutability": "view",
            "type": "function"
        },
        {
            "inputs": [],
            "name": "paid",
            "outputs": [
                {
                    "internalType": "bool",
                    "name": "",
                    "type": "bool"
                }
            ],
            "stateMutability": "view",
            "type": "function"
        }
    ],
    "bytecode": "608060405234801561001057600080fd5b506040516101d53803806101d583398101604081905261002f91610068565b6000805460018590556003939093556004919091556001600160a01b03939093166001600160a81b0319909116179091556002556100b3565b6000806000806080858703121561007e57600080fd5b84516001600160a01b038116811461009557600080fd5b60208601516040870151606090970151919890975090945092505050565b610113806100c26000396000f3fe6080604052348015600f57600080fd5b5060043610605a5760003560e01c8063295b4e1714605f5780637df1f1b9146087578063b69ef8a81460b0578063b9a9d91c1460c5578063cbb3d8081460cd578063ffc80bfb1460d5575b600080fd5b600054607290600160a01b900460ff1681565b60405190151581526020015b60405180910390f35b6000546099906001600160a01b031681565b6040516001600160a01b039091168152602001607e565b60b860025481565b604051908152602001607e565b60b860045481565b60b860035481565b60b86001548156fea2646970667358221220dee8fe01cda6c2f38a3727e70135dc17c9df5f7ba926e128a81e47d927067e5c64736f6c63430008130033",
    "sourcePath": "/Users/yanlin/Desktop/VariableLendingPool/contracts/Interest.sol",
    "compiler": {
        "name": "solc",
        "version": "0.8.19+commit.7dd6d404"
    },
    "functionHashes": {
        "balance()": "b69ef8a8",
        "borrower()": "7df1f1b9",
        "interest_rate()": "cbb3d808",
        "loan_duration()": "b9a9d91c",
        "loaned_amount()": "ffc80bfb",
        "paid()": "295b4e17"
    },
    "gasEstimates": {
        "creation": {
            "codeDepositCost": "55000",
            "executionCost": "infinite",
            "totalCost": "infinite"
        },
        "external": {
            "balance()": "2317",
            "borrower()": "2337",
            "interest_rate()": "2361",
            "loan_duration()": "2339",
            "loaned_amount()": "2383",
            "paid()": "2294"
        }
    }
}