{
    "contractName": "LoanInterestCalculator",
    "abi": [
        {
            "inputs": [
                {
                    "internalType": "uint256",
                    "name": "amount",
                    "type": "uint256"
                },
                {
                    "internalType": "uint256",
                    "name": "exchangeRate",
                    "type": "uint256"
                },
                {
                    "internalType": "uint256",
                    "name": "creditScore",
                    "type": "uint256"
                }
            ],
            "name": "calculateInterest",
            "outputs": [
                {
                    "internalType": "uint256",
                    "name": "",
                    "type": "uint256"
                }
            ],
            "stateMutability": "view",
            "type": "function"
        },
        {
            "inputs": [],
            "name": "riskPremium",
            "outputs": [
                {
                    "internalType": "uint256",
                    "name": "",
                    "type": "uint256"
                }
            ],
            "stateMutability": "view",
            "type": "function"
        },
        {
            "inputs": [
                {
                    "internalType": "uint256",
                    "name": "newRiskPremium",
                    "type": "uint256"
                }
            ],
            "name": "setRiskPremium",
            "outputs": [],
            "stateMutability": "nonpayable",
            "type": "function"
        }
    ],
    "bytecode": "6080604052606e60005534801561001557600080fd5b506101c5806100256000396000f3fe608060405234801561001057600080fd5b50600436106100415760003560e01c806305e1bd8c146100465780633e8b83c81461006b578063a117d72914610074575b600080fd5b6100596100543660046100fd565b610089565b60405190815260200160405180910390f35b61005960005481565b610087610082366004610129565b600055565b005b600080610097846064610142565b6000546100a49087610142565b6100ae919061016d565b9050600061032084106100c3575060016100e9565b6102bc84106100d4575060026100e9565b61025884106100e5575060036100e9565b5060045b6100f38183610142565b9695505050505050565b60008060006060848603121561011257600080fd5b505081359360208301359350604090920135919050565b60006020828403121561013b57600080fd5b5035919050565b808202811582820484141761016757634e487b7160e01b600052601160045260246000fd5b92915050565b60008261018a57634e487b7160e01b600052601260045260246000fd5b50049056fea2646970667358221220834146ac23133d7d47fa85f10bed1872495509ca2eb244e0df714a9807dfcd1264736f6c63430008130033",
    "sourcePath": "/Users/yanlin/Desktop/VariableLendingPool/contracts/Interest.sol",
    "compiler": {
        "name": "solc",
        "version": "0.8.19+commit.7dd6d404"
    },
    "functionHashes": {
        "calculateInterest(uint256,uint256,uint256)": "05e1bd8c",
        "riskPremium()": "3e8b83c8",
        "setRiskPremium(uint256)": "a117d729"
    },
    "gasEstimates": {
        "creation": {
            "codeDepositCost": "90600",
            "executionCost": "22247",
            "totalCost": "112847"
        },
        "external": {
            "calculateInterest(uint256,uint256,uint256)": "infinite",
            "riskPremium()": "2283",
            "setRiskPremium(uint256)": "22334"
        }
    }
}