{
  "contractName": "Loan",
  "abi": [
    {
      "inputs": [
        {
          "internalType": "address",
          "name": "_borrower",
          "type": "address"
        },
        {
          "internalType": "uint256",
          "name": "_loaned_amount",
          "type": "uint256"
        },
        {
          "internalType": "uint256",
          "name": "_interest_rate",
          "type": "uint256"
        },
        {
          "internalType": "uint256",
          "name": "_loan_duration",
          "type": "uint256"
        }
      ],
      "stateMutability": "nonpayable",
      "type": "constructor"
    },
    {
      "inputs": [],
      "name": "balance",
      "outputs": [
        {
          "internalType": "uint256",
          "name": "",
          "type": "uint256"
        }
      ],
      "stateMutability": "view",
      "type": "function"
    },
    {
      "inputs": [],
      "name": "borrower",
      "outputs": [
        {
          "internalType": "address",
          "name": "",
          "type": "address"
        }
      ],
      "stateMutability": "view",
      "type": "function"
    },
    {
      "inputs": [],
      "name": "interest_rate",
      "outputs": [
        {
          "internalType": "uint256",
          "name": "",
          "type": "uint256"
        }
      ],
      "stateMutability": "view",
      "type": "function"
    },
    {
      "inputs": [],
      "name": "loan_duration",
      "outputs": [
        {
          "internalType": "uint256",
          "name": "",
          "type": "uint256"
        }
      ],
      "stateMutability": "view",
      "type": "function"
    },
    {
      "inputs": [],
      "name": "loaned_amount",
      "outputs": [
        {
          "internalType": "uint256",
          "name": "",
          "type": "uint256"
        }
      ],
      "stateMutability": "view",
      "type": "function"
    },
    {
      "inputs": [],
      "name": "paid",
      "outputs": [
        {
          "internalType": "bool",
          "name": "",
          "type": "bool"
        }
      ],
      "stateMutability": "view",
      "type": "function"
    },
    {
      "inputs": [],
      "name": "verifyLoan",
      "outputs": [
        {
          "internalType": "bool",
          "name": "",
          "type": "bool"
        }
      ],
      "stateMutability": "view",
      "type": "function"
    },
    {
      "inputs": [],
      "name": "initiateLoan",
      "outputs": [],
      "stateMutability": "payable",
      "type": "function"
    }
  ],
  "bytecode": "0x608060405234801561001057600080fd5b5060405161095a38038061095a8339818101604052810190610032919061014b565b836000806101000a81548173ffffffffffffffffffffffffffffffffffffffff021916908373ffffffffffffffffffffffffffffffffffffffff16021790555082600181905550816003819055508060048190555060008060146101000a81548160ff0219169083151502179055506000600281905550505050506101b2565b600080fd5b600073ffffffffffffffffffffffffffffffffffffffff82169050919050565b60006100e2826100b7565b9050919050565b6100f2816100d7565b81146100fd57600080fd5b50565b60008151905061010f816100e9565b92915050565b6000819050919050565b61012881610115565b811461013357600080fd5b50565b6000815190506101458161011f565b92915050565b60008060008060808587031215610165576101646100b2565b5b600061017387828801610100565b945050602061018487828801610136565b935050604061019587828801610136565b92505060606101a687828801610136565b91505092959194509250565b610799806101c16000396000f3fe60806040526004361061007b5760003560e01c8063b69ef8a81161004e578063b69ef8a81461010b578063b9a9d91c14610136578063cbb3d80814610161578063ffc80bfb1461018c5761007b565b8063295b4e17146100805780632fc2279b146100ab5780634242c52f146100d65780637df1f1b9146100e0575b600080fd5b34801561008c57600080fd5b506100956101b7565b6040516100a2919061037c565b60405180910390f35b3480156100b757600080fd5b506100c06101ca565b6040516100cd919061037c565b60405180910390f35b6100de61022d565b005b3480156100ec57600080fd5b506100f5610325565b60405161010291906103d8565b60405180910390f35b34801561011757600080fd5b50610120610349565b60405161012d919061040c565b60405180910390f35b34801561014257600080fd5b5061014b61034f565b604051610158919061040c565b60405180910390f35b34801561016d57600080fd5b50610176610355565b604051610183919061040c565b60405180910390f35b34801561019857600080fd5b506101a161035b565b6040516101ae919061040c565b60405180910390f35b600060149054906101000a900460ff1681565b60008060008054906101000a900473ffffffffffffffffffffffffffffffffffffffff1673ffffffffffffffffffffffffffffffffffffffff163190506004546003546102179190610589565b60015461022491906105d4565b81101591505090565b60008054906101000a900473ffffffffffffffffffffffffffffffffffffffff1673ffffffffffffffffffffffffffffffffffffffff163373ffffffffffffffffffffffffffffffffffffffff16146102bb576040517f08c379a00000000000000000000000000000000000000000000000000000000081526004016102b2906106b1565b60405180910390fd5b60015434146102ff576040517f08c379a00000000000000000000000000000000000000000000000000000000081526004016102f690610743565b60405180910390fd5b6001600060146101000a81548160ff021916908315150217905550600154600281905550565b60008054906101000a900473ffffffffffffffffffffffffffffffffffffffff1681565b60025481565b60045481565b60035481565b60015481565b60008115159050919050565b61037681610361565b82525050565b6000602082019050610391600083018461036d565b92915050565b600073ffffffffffffffffffffffffffffffffffffffff82169050919050565b60006103c282610397565b9050919050565b6103d2816103b7565b82525050565b60006020820190506103ed60008301846103c9565b92915050565b6000819050919050565b610406816103f3565b82525050565b600060208201905061042160008301846103fd565b92915050565b7f4e487b7100000000000000000000000000000000000000000000000000000000600052601160045260246000fd5b60008160011c9050919050565b6000808291508390505b60018511156104ad5780860481111561048957610488610427565b5b60018516156104985780820291505b80810290506104a685610456565b945061046d565b94509492505050565b6000826104c65760019050610582565b816104d45760009050610582565b81600181146104ea57600281146104f457610523565b6001915050610582565b60ff84111561050657610505610427565b5b8360020a91508482111561051d5761051c610427565b5b50610582565b5060208310610133831016604e8410600b84101617156105585782820a90508381111561055357610552610427565b5b610582565b6105658484846001610463565b9250905081840481111561057c5761057b610427565b5b81810290505b9392505050565b6000610594826103f3565b915061059f836103f3565b92506105cc7fffffffffffffffffffffffffffffffffffffffffffffffffffffffffffffffff84846104b6565b905092915050565b60006105df826103f3565b91506105ea836103f3565b9250817fffffffffffffffffffffffffffffffffffffffffffffffffffffffffffffffff048311821515161561062357610622610427565b5b828202905092915050565b600082825260208201905092915050565b7f4f6e6c792074686520626f72726f7765722063616e2066756e6420746865206c60008201527f6f616e0000000000000000000000000000000000000000000000000000000000602082015250565b600061069b60238361062e565b91506106a68261063f565b604082019050919050565b600060208201905081810360008301526106ca8161068e565b9050919050565b7f416d6f756e742073656e74206d75737420626520657175616c20746f2074686560008201527f206c6f616e656420616d6f756e74000000000000000000000000000000000000602082015250565b600061072d602e8361062e565b9150610738826106d1565b604082019050919050565b6000602082019050818103600083015261075c81610720565b905091905056fea2646970667358221220bbb6ae796180ab075ae2d4c5d55927e898ccd547f9413a82559d767bd6693fcf64736f6c634300080d0033",
  "immutableReferences": {},
  "source": "//SPDX-License-Identifier: MIT\npragma solidity ^0.8.0;\n\ncontract Loan {\n    address public borrower;\n    bool public paid;\n    uint public loaned_amount;\n    uint public balance;\n    uint public interest_rate;\n    uint public loan_duration;\n\n    constructor(\n        address _borrower,\n        uint _loaned_amount,\n        uint _interest_rate,\n        uint _loan_duration\n    ) {\n        borrower = _borrower;\n        loaned_amount = _loaned_amount;\n        interest_rate = _interest_rate;\n        loan_duration = _loan_duration;\n        paid = false;\n        balance = 0;\n    }\n\n    function verifyLoan() public view returns (bool) {\n        uint256 applicantBalance = borrower.balance;\n        return applicantBalance >= loaned_amount * (interest_rate ** loan_duration);\n    }\n\n    function initiateLoan() public payable {\n        require(msg.sender == borrower, \"Only the borrower can fund the loan\");\n        require(msg.value == loaned_amount, \"Amount sent must be equal to the loaned amount\");\n        paid = true;\n        balance = loaned_amount;\n        // Mint bEth to borrower\n    }\n}",
  "sourcePath": "/Users/bowen/proj/VariableLendingPool/contracts/Interest.sol",
  "compiler": {
    "name": "solc",
    "version": "0.8.13+commit.abaa5c0e.Emscripten.clang"
  },
  "schemaVersion": "3.4.16",
  "updatedAt": "2023-10-26T14:37:04.534Z",
  "devdoc": {
    "kind": "dev",
    "methods": {},
    "version": 1
  },
  "userdoc": {
    "kind": "user",
    "methods": {},
    "version": 1
  }
}